:107C000011241FBECFEFD8E0DEBFCDBF21E0A0E042
:107C1000B1E001C01D92A038B207E1F70E94433ED7
:107C20000C94D63F0C94423E8091C00087FFFCCF5D
:107C30008091C60008955A9A8093C6008091C00032
:107C400085FFFCCF8091C00080628093C00083E3F9
:107C500097E00197F1F75A98089581E40E941B3E3E
:107C600086E50E941B3E82E50E941B3E82E40E9444
:107C70001B3E8FE40E941B3E8FE40E941B3E84E566
:107C80000C941B3E0895CF93DF931F92CDB7DEB7C0
:107C90002B9A239AF894A89584B7877F84BF809104
:107CA0006000886180936000109260005A98529A38
:107CB0001092C5008FE28093C40088E18093C100D8
:107CC00086E08093C200E12CF12C00E010E080916E
:107CD000C00087FF04C08091C6008335A1F080E911
:107CE000E81681E0F80628F02E982B982398F801E2
:107CF00009958FEF9FE80197F1F700C000009FEF13
:107D0000E91AF90AE4CF0E942D3E812CC12CD12C16
:107D10006CE0362E73E0672EE1E17E2E55245394FD
:107D2000F5E04F2E0E94143E813611F489E525C1FD
:107D3000813449F40E94143E90E0D82ECC240E9455
:107D4000143EC82AFEC0823641F489E50E941B3EDB
:107D500080E00E941B3E80E810C1823409F071C0AF
:107D60000E94143E0E94143E982E0E94143E982FAA
:107D700000E011E0B12CB91428F499830E94143E5C
:107D8000998101C08FEFF80181938F01B394F0E8DE
:107D9000BF12F1CF83E78812C6C0963409F034C011
:107DA000860120E030E0000F111F221F331FA0E0EA
:107DB000B1E080910001B901A801900E1196EC91FB
:107DC000119790E09E2BFA010C0150925700E89514
:107DD00011244E5F5F4F6F4F7F4F941629F012961C
:107DE0008C9112971296EACFF80140925700E895CD
:107DF00007B600FCFDCF70925700E8957695679521
:107E0000579547956A019DC0953409F09AC000E0E6
:107E100011E0C601805091405C01F801E90D2E2E61
:107E2000C501800F911FF80161918F010E94C83F29
:107E30002012F6CFFFEFCF1ADF0A9A94C90CD11C9B
:107E400080C0873609F03EC00E94143E0E94143E56
:107E5000B82E0E94143E8634F9F4E12CF12CCC0C9F
:107E6000DD1CEE1CFF1CBC0CF60105911491802F4B
:107E70000E941B3E812F0E941B3E82E0C80ED11C37
:107E8000E11CF11CBC10F0CFB701A60176956795F7
:107E9000579547956A0146CF853409F043CF86014F
:107EA000AC2CAB0CC8010E94C03F0E941B3E0F5F70
:107EB0001F4FA012F7CF9FEFC91AD90ABA94CB0C63
:107EC000D11C30CF8536A9F4E3E78E123AC0E0E04A
:107ED000F0E060925700E89507B600FCFDCFE0584F
:107EE000FF4FE1158CE7F807A1F770925700E8956E
:107EF00028C0853459F4E8E1F0E00FB6F894A8956D
:107F0000E09360000FBE309260001BC08035C9F066
:107F10008C34B9F0803711F483E52FC0843729F40D
:107F200083E70E941B3E80E028C098E8980F9230BB
:107F300018F40E94143E05C0843529F40E94143EB2
:107F4000882E8DE01AC0833519F40E942D3EEACEAA
:107F5000863529F480E30E941B3E88E30EC08337F8
:107F600041F488E00E941B3E85E90E941B3E8EE1A1
:107F700004C08B3109F4D6CE8FE30E941B3ED2CED3
:107F8000F999FECF92BD81BDF89A992780B50895E1
:107F9000262FF999FECF1FBA92BD81BD20BD0FB625
:107FA000F894FA9AF99A0FBE01960895F894FFCFC3
:0400000300007C007D
:00000001FF
